{
  "contractName": "CastYourVote",
  "abi": [
    {
      "inputs": [
        {
          "name": "candidateName",
          "type": "string"
        }
      ],
      "payable": false,
      "stateMutability": "nonpayable",
      "type": "constructor"
    },
    {
      "anonymous": false,
      "inputs": [
        {
          "indexed": false,
          "name": "comment",
          "type": "string"
        },
        {
          "indexed": false,
          "name": "variable",
          "type": "string"
        }
      ],
      "name": "log",
      "type": "event"
    },
    {
      "constant": false,
      "inputs": [
        {
          "name": "candidateName",
          "type": "string"
        }
      ],
      "name": "addCandidates",
      "outputs": [],
      "payable": false,
      "stateMutability": "nonpayable",
      "type": "function"
    },
    {
      "constant": false,
      "inputs": [
        {
          "name": "candidateName",
          "type": "string"
        }
      ],
      "name": "voteFor",
      "outputs": [],
      "payable": false,
      "stateMutability": "nonpayable",
      "type": "function"
    },
    {
      "constant": true,
      "inputs": [
        {
          "name": "candidateName",
          "type": "string"
        }
      ],
      "name": "totalVotesReceived",
      "outputs": [
        {
          "name": "votes",
          "type": "uint8"
        }
      ],
      "payable": false,
      "stateMutability": "view",
      "type": "function"
    }
  ],
  "bytecode": "0x608060405234801561001057600080fd5b50604051610c0b380380610c0b8339810180604052602081101561003357600080fd5b81019080805164010000000081111561004b57600080fd5b8281019050602081018481111561006157600080fd5b815185600182028301116401000000008211171561007e57600080fd5b505092919050505060008190806001815401808255809150509060018203906000526020600020016000909192909190915090805190602001906100c39291906101d5565b50507f4b5c4277d556d03fbf5ee534fba41dc13982b44f2fa82f1d48fdd8b5b5b692ac6000808154811015156100f557fe5b906000526020600020016040518080602001806020018381038352600e8152602001807f63616e646964617465204c6973740000000000000000000000000000000000008152506020018381038252848181546001816001161561010002031660029004815260200191508054600181600116156101000203166002900480156101c05780601f10610195576101008083540402835291602001916101c0565b820191906000526020600020905b8154815290600101906020018083116101a357829003601f168201915b5050935050505060405180910390a15061027a565b828054600181600116156101000203166002900490600052602060002090601f016020900481019282601f1061021657805160ff1916838001178555610244565b82800160010185558215610244579182015b82811115610243578251825591602001919060010190610228565b5b5090506102519190610255565b5090565b61027791905b8082111561027357600081600090555060010161025b565b5090565b90565b610982806102896000396000f3fe608060405260043610610057576000357c0100000000000000000000000000000000000000000000000000000000900463ffffffff16806362604e961461005c578063908f6bab14610124578063c04752d814610206575b600080fd5b34801561006857600080fd5b506101226004803603602081101561007f57600080fd5b810190808035906020019064010000000081111561009c57600080fd5b8201836020820111156100ae57600080fd5b803590602001918460018302840111640100000000831117156100d057600080fd5b91908080601f016020809104026020016040519081016040528093929190818152602001838380828437600081840152601f19601f8201169050808301925050505050505091929192905050506102ce565b005b34801561013057600080fd5b506101ea6004803603602081101561014757600080fd5b810190808035906020019064010000000081111561016457600080fd5b82018360208201111561017657600080fd5b8035906020019184600183028401116401000000008311171561019857600080fd5b91908080601f016020809104026020016040519081016040528093929190818152602001838380828437600081840152601f19601f820116905080830192505050505050509192919290505050610310565b604051808260ff1660ff16815260200191505060405180910390f35b34801561021257600080fd5b506102cc6004803603602081101561022957600080fd5b810190808035906020019064010000000081111561024657600080fd5b82018360208201111561025857600080fd5b8035906020019184600183028401116401000000008311171561027a57600080fd5b91908080601f016020809104026020016040519081016040528093929190818152602001838380828437600081840152601f19601f820116905080830192505050505050509192919290505050610593565b005b600081908060018154018082558091505090600182039060005260206000200160009091929091909150908051906020019061030b9291906108b1565b505050565b600080600090505b6000805490508160ff16101561058c5773__StringUtils___________________________6346bdca9a8460008460ff1681548110151561035557fe5b906000526020600020016040518363ffffffff167c0100000000000000000000000000000000000000000000000000000000028152600401808060200180602001838103835285818151815260200191508051906020019080838360005b838110156103ce5780820151818401526020810190506103b3565b50505050905090810190601f1680156103fb5780820380516001836020036101000a031916815260200191505b5083810382528481815460018160011615610100020316600290048152602001915080546001816001161561010002031660029004801561047d5780601f106104525761010080835404028352916020019161047d565b820191906000526020600020905b81548152906001019060200180831161046057829003601f168201915b505094505050505060206040518083038186803b15801561049d57600080fd5b505af41580156104b1573d6000803e3d6000fd5b505050506040513d60208110156104c757600080fd5b81019080805190602001909291905050501561057f57600260008260ff168154811015156104f157fe5b9060005260206000200160405180828054600181600116156101000203166002900480156105565780601f10610534576101008083540402835291820191610556565b820191906000526020600020905b815481529060010190602001808311610542575b5050915050908152602001604051809103902060009054906101000a900460ff1691505061058e565b8080600101915050610318565b505b919050565b60008090505b6000805490508160ff1610156108ad5773__StringUtils___________________________6346bdca9a8360008460ff168154811015156105d657fe5b906000526020600020016040518363ffffffff167c0100000000000000000000000000000000000000000000000000000000028152600401808060200180602001838103835285818151815260200191508051906020019080838360005b8381101561064f578082015181840152602081019050610634565b50505050905090810190601f16801561067c5780820380516001836020036101000a031916815260200191505b508381038252848181546001816001161561010002031660029004815260200191508054600181600116156101000203166002900480156106fe5780601f106106d3576101008083540402835291602001916106fe565b820191906000526020600020905b8154815290600101906020018083116106e157829003601f168201915b505094505050505060206040518083038186803b15801561071e57600080fd5b505af4158015610732573d6000803e3d6000fd5b505050506040513d602081101561074857600080fd5b8101908080519060200190929190505050156108a0576001600260008360ff1681548110151561077457fe5b9060005260206000200160405180828054600181600116156101000203166002900480156107d95780601f106107b75761010080835404028352918201916107d9565b820191906000526020600020905b8154815290600101906020018083116107c5575b5050915050908152602001604051809103902060009054906101000a900460ff1601600260008360ff1681548110151561080f57fe5b9060005260206000200160405180828054600181600116156101000203166002900480156108745780601f10610852576101008083540402835291820191610874565b820191906000526020600020905b815481529060010190602001808311610860575b5050915050908152602001604051809103902060006101000a81548160ff021916908360ff1602179055505b8080600101915050610599565b5050565b828054600181600116156101000203166002900490600052602060002090601f016020900481019282601f106108f257805160ff1916838001178555610920565b82800160010185558215610920579182015b8281111561091f578251825591602001919060010190610904565b5b50905061092d9190610931565b5090565b61095391905b8082111561094f576000816000905550600101610937565b5090565b9056fea165627a7a723058205f8890701df147297493258042c9fa5d597b14bcf61d4f9d6ad1418ed7dabf450029",
  "source": "pragma solidity ^0.5.0;\nimport \"./StringUtils.sol\";\n\ncontract CastYourVote {\n\n    string[] candidateList;\n    uint8 test;\n\n    event log(string comment, string variable);\n\n    mapping(string => uint8) Votesreceived; // \"A\" => 3 Votes Votesreceived[A]=3...\n\n    constructor(string memory candidateName) public{\n        candidateList.push(candidateName);\n       emit log('candidate List', candidateList[0]);\n    }\n\n\n    function addCandidates(string memory candidateName) public {\n        candidateList.push(candidateName);\n    }\n\n    function voteFor(string memory candidateName) public\n    {\n        for (uint8 i=0; i<candidateList.length; i++ )\n        {\n            if (StringUtils.equal(candidateName,candidateList[i]))\n            {\n                Votesreceived[candidateList[i]] = Votesreceived[candidateList[i]] +1;\n            }\n        }\n    }\n\n\n    function totalVotesReceived(string memory candidateName) public view returns (uint8 votes)\n    {\n        for (uint8 i=0; i<candidateList.length; i++ )\n        {\n            if (StringUtils.equal(candidateName,candidateList[i]))\n            {\n                return Votesreceived[candidateList[i]];\n            }\n        }\n    }\n\n\n}\n",
  "sourcePath": "C:/Learnings/Block Chain/projects/VotingDAPP/votingdappcode/contracts/CastYourVote.sol",
  "compiler": {
    "name": "solc",
    "version": "0.5.0+commit.1d4f565a.Emscripten.clang"
  },
  "schemaVersion": "3.0.0",
  "updatedAt": "2018-12-31T01:27:48.524Z",
  "devdoc": {
    "methods": {}
  },
  "userdoc": {
    "methods": {}
  }
}